:020000040803EF
:10200000380D00209D210308A5210308A7210308FE
:10201000A9210308AB210308AD210308000000003B
:10202000000000000000000000000000433603082C
:10203000B1210308000000004136030845360308BB
:10204000B7210308B7210308B7210308B721030804
:10205000B7210308B7210308B7210308B7210308F4
:10206000B7210308B7210308B7210308B7210308E4
:10207000B7210308B7210308B7210308B7210308D4
:10208000B7210308B7210308B7210308B7210308C4
:10209000B7210308B7210308B7210308B7210308B4
:1020A000B7210308B7210308B7210308B7210308A4
:1020B000B7210308B7210308B7210308B721030894
:1020C000B7210308B7210308B7210308B721030884
:1020D000B7210308B7210308B7210308B721030874
:1020E000B7210308B7210308B7210308B721030864
:1020F000B7210308B7210308B7210308B721030854
:10210000000000000000000000000000B7210308EC
:10211000B7210308B7210308B7210308B721030833
:10212000B7210308B7210308B7210308B721030823
:10213000B7210308B72103080000000000000000D9
:10214000B7210308B7210308B721030800000000E6
:10215000000000000000000000000000000000007F
:102160000000000000000000B7210308B7210308A9
:10217000B72103080000000000000000000000007C
:1021800000000000B7210308DFF80CD000F05AF877
:102190000048004781400308380D0020064880476A
:1021A00006480047FEE7FEE7FEE7FEE7FEE7FEE73C
:1021B000FEE7FEE7FEE7FEE745370308892103084F
:1021C000202A04DB203A21FA02F00021704721FA8C
:1021D00002F3D040C2F120029140084319467047F3
:1021E00040EA01039B0703D009E008C9121F08C099
:1021F000042AFAD203E011F8013B00F8013B521E19
:10220000F9D27047D2B201E000F8012B491EFBD28F
:1022100070470022F6E710B513460A4604461946F1
:10222000FFF7F0FF204610BD30B5044600200346FE
:1022300000E05B1C934203D2E05CCD5C401BF8D015
:1022400030BD0000064C074D06E0E06840F0010399
:1022500094E8070098471034AC42F6D3FFF798FF94
:10226000305103085051030806490020C861064850
:10227000016941F004010161016941F0400101611E
:1022800070470000A800002000200240064A0021FC
:10229000D16106490A6942F002020A61486108698F
:1022A00040F0400008617047A80000200020024074
:1022B000044B0022DA61044A136943F001031361FD
:1022C00001807047A8000020002002400A49002039
:1022D000CA68D306094A04D5D06940F00200D0612B
:1022E0001020CB685B0705D5D36943F00103D361A8
:1022F00040F00400C860704700200240A8000020A1
:1023000070B5054600F082F90646104C09E0681CDD
:1023100007D025B100F07AF9801BA84201D903202B
:1023200070BDE068C007F2D1E068800601D52020CA
:10233000E060E068C00602D4E068400703D5FFF71C
:10234000C5FF012070BD002070BD000000200240CC
:102350002DE9F047054626480F460126017E012952
:102360000FD00121814601762868DFF888804CF281
:102370005034012808D0A2462046FFF7C1FFA0B183
:1023800030E00220BDE8F0872046FFF7B9FF00BB30
:10239000FFF76AFF2046FFF7B3FFD8F81010064694
:1023A00021F00401C8F810101CE04FF0FF30386035
:1023B0006C6811E02046FFF769FF5046FFF7A0FF69
:1023C000D8F81010060021F00201C8F8101001D052
:1023D0003C6007E004F50064D5E9010100EBC12091
:1023E000A042E7D8002189F818103046CAE700005B
:1023F000A8000020002002402DE9F05F07461C489D
:1024000088460024017E15461E46012909D0012177
:10241000814601764CF2503A5046FFF771FF18B1F1
:1024200022E00220BDE8F09F012F02D0022F00D051
:102430000427D346DFF83CA0220128463146FFF7A7
:10244000BFFE81B208EB4400FFF732FF5846FFF7AA
:1024500057FFDAF8102022F00102CAF8102018B94C
:10246000641CE4B2BC42E7D3002289F81820D9E703
:10247000A8000020002002402DE9F84FDFF864B1E9
:1024800000234FF0010C4FF0030A4FF00F090BF13E
:10249000040EA0E00CFA03F6324072D04C68022C15
:1024A00001D0122C0ED1DC0800EB8408D8F82040B3
:1024B0005D07EF0E09FA07F5AC430D69BD402543F2
:1024C000C8F8205007685D0091F804800AFA05F406
:1024D00008F00308A74308FA05F848EA0708C0F817
:1024E00000804F68012F05D0022F03D0112F01D09B
:1024F000122F11D18768D1F80C80A74308FA05F88C
:1025000048EA0708C0F808804768B7430E79C6F361
:1025100000169E403E434660C668A6438C68AC40A9
:102520003443C4604C68E40054D52F4CA56945F091
:102530000105A561A46923F0030504F001040094DA
:102540002A4C2E19B4689D072F0F09FA07F5AC43E2
:10255000B0F1904F04D0264DA84203D1012512E0DE
:10256000002510E0234DA84201D102250BE0224DA9
:10257000A84201D1032506E0204DA84202D104253E
:1025800001E027E00525BD402543B560DBF80040AC
:102590005D464E689443F60300D514432C60DEF884
:1025A000004075464E689443B60300D514432C6032
:1025B0000C4D08352C684E689443F60200D5144340
:1025C0002C60084D0C352C684E689443B60200D53B
:1025D00014432C605B1C0A6832FA03F47FF45AAF90
:1025E000BDE8F88F000401400010024000000140E7
:1025F0000004004800080048000C00480010004893
:102600000AB181617047816270470000014800682B
:10261000704700000000002090F84120202A24D1BB
:1026200090F84020012A20D0012280F84020242266
:1026300080F841200268136823F0010313600268E8
:10264000136823F480531360026813680B4313600C
:1026500001680A6842F001020A60202180F84110F6
:10266000002180F8401008467047022070470000A3
:1026700070B5040004D094F84100002510B106E0C4
:10268000012070BD84F84050204600F0DDF8242081
:1026900084F841002068016821F001010160606850
:1026A000216820F0706008612068816821F4004191
:1026B0008160A06830B1E168012907D040F404408E
:1026C00021688860E068022803D006E040F40040FA
:1026D000F6E721684FF400604860206841680F4ABF
:1026E00011434160D4E904010843A16940EA012093
:1026F0002168C860D4E907010843216808602068A0
:10270000016841F0010101606564202084F8410006
:10271000256384F84250002070BD00000080000254
:102720002DE9F84F044690F84100DDF828A01F4637
:1027300090468B4620287CD194F8400001287FD019
:10274000012084F84000FFF761FF06460122009057
:102750001923D103204600F099FE38BB212084F8CC
:102760004100102084F8420000256564C4F82480EC
:1027700067856563618D4002FF274FF080784FF0D9
:102780000079FF2903D927853A46009031E0618D11
:102790002185009032E05946204600F065FE31E088
:1027A00000F0C4FE18B1606C042847D018E0606ADD
:1027B000411C6162216800788862608D401E6085DE
:1027C000208D401E0004000C20851BD1608DC8B1F7
:1027D0005346002280212046009600F057FE10B19B
:1027E0000320BDE8F88F608DFF2804D927853A467D
:1027F00000954346CFE7608D2085009594F828200A
:102800004B46C8E7608D3246002851462046C7D166
:1028100000F065FE0028C6D120682021C161206833
:102820004368084A1340436084F8411084F84250DA
:1028300000E005E084F840500020D2E70120D0E716
:102840000220CEE700E800FE00B500680E4987B020
:10285000884216D1C02000901220019001200290E1
:10286000032003900420049069460848FFF704FE03
:102870000748C16941F40011C161C06900F400104A
:10288000059007B000BD000000540040000400485F
:102890000010024002480168491C016070470000B6
:1028A00000000020074810B5016841F010010160E8
:1028B000032000F075F8002000F006F800F018F88A
:1028C000002010BD0020024010B5044607484FF418
:1028D0007A710068B0FBF1F000F05FFD0022214644
:1028E000501E00F03DF8002010BD000080000020C8
:1028F0001A4808B5816941F001018161806900F0E1
:1029000001000090032000F04BF8002211466FF008
:102910000B0000F025F8002211466FF00A0000F0CD
:102920001FF8002211466FF0090000F019F800228C
:102930001146501F00F014F800221146101F00F03D
:102940000FF800221146901E00F00AF80022BDE8A0
:1029500008401146501E00F003B80000001002406D
:10296000F0B40E4B1B680C46C3F30223C3F10705FA
:10297000042D00D90425191D072901D2002300E0E8
:10298000DB1E012606FA05F1491E214099409E40B2
:10299000761E16403143F0BC00F042BE0CED00E064
:1029A000064900F0070208684FF6FF03184040EAA6
:1029B0000220034A10430860704700000CED00E05D
:1029C0000000FA052DE9F84F04460068804DC00369
:1029D0006FD5E8690026C00008D4E86940F080504F
:1029E000E861E869012600F08050009079480168AC
:1029F000C90512D40168804641F480710160FFF777
:102A000005FE074605E000BFFFF700FEC01B642877
:102A100035D8D8F80000C005F6D5286A10F4407003
:102A200053D0A18801F4407181424ED0286A4FF4FE
:102A3000803191FAA1F2B2FA82F29700664A4FF021
:102A40000108174420F44070C7F8008491FAA1F1FE
:102A5000B1FA81F102EB81010023C1F80034286250
:102A6000C00732D0FFF7D2FD074641F2883A4FF057
:102A7000020907E0FFF7CAFDC11B514502D9032037
:102A8000BDE8F88F99FAA9F1B1FA81F141F040015E
:102A90004846B8EB511F01D129680CE090FAA0F12B
:102AA000B1FA81F141F04001B0EB511F02D1296A26
:102AB00001E015E0696A99FAA9F0B0FA80F000F037
:102AC0001F0008FA00F21142D4D0286A616820F48D
:102AD0004070084328621EB1E86920F08050E86128
:102AE0002078C00705D0286BA16820F003000843B8
:102AF00028632078800705D5286BE16820F44030F2
:102B0000084328632078400705D5286B216920F405
:102B10004020084328632078800605D5286BE169AA
:102B200020F01000084328632068800305D56868FA
:102B3000A16B20F48000084368602078400605D52A
:102B4000286B216A20F020000843286320780007C2
:102B500005D5286B616920F440100843286320786C
:102B6000C00605D5286BA16920F4400008432863FE
:102B70002088800505D56868E16A20F400000843D4
:102B800068602078000605D5E86A616A20F4F8706C
:102B90000843E8622088C00505D5E86AA16A20F4E8
:102BA00078500843E8622088C00405D5286B216B63
:102BB00020F48070084328632088800405D5286BA2
:102BC000616B20F4007008432863002058E7000080
:102BD0000010024000700040000042422DE9F04722
:102BE000DFF8708105460E46D8F8000000F00700B7
:102BF000B0420CD2D8F8001021F007013143C8F8D8
:102C00000010D8F8000000F00700B04277D1287813
:102C1000514C800705D56068A96820F0F000084392
:102C200060602878C00759D06968012001290DD05B
:102C3000022929D05FF0020393FAA3F2B2FA82F2DA
:102C400042F02002520904D0226803E04FF400331E
:102C5000F2E7626A93FAA3F3B3FA83F303F01F0374
:102C6000984002424BD0606820F003000843606047
:102C7000FFF7CCFC6968074641F2883001290DD086
:102C80000229814617D025E04FF00073D4E700BF3A
:102C9000FFF7BCFCC11B494501D918E081466068BB
:102CA000C0F381000128F3D118E000BFFFF7AEFCAC
:102CB000C11B49450BD86068C0F381000228F5D1DB
:102CC0000CE000BFFFF7A2FCC11B494502D903205D
:102CD000BDE8F087606810F00C0FF3D1D8F8001051
:102CE000404601F00701B1420BD9016821F007010C
:102CF00031430160006800F00700B04201D00120BC
:102D0000E6E72878400705D56068E96820F4E060C8
:102D1000084360602878000706D56068296920F4B8
:102D2000605040EAC100606000F022F86168F02263
:102D300092FAA2F201F0F001B2FA82F2D140074A0F
:102D4000515CC840064908600020FFF7BDFD002027
:102D5000BEE700000020024000100240205103089E
:102D600080000020014800687047000080000020BB
:102D7000144B10B55A68144802F00C0104291DD0F8
:102D800008291BD14FF4701494FAA4F402F47011C2
:102D9000B4FA84F4E1400D4CDB6A615C0F2494FAD0
:102DA000A4F403F00F03B4FA84F4E340074C1034A6
:102DB000D203E35C03D5B0FBF3F0484310BD0448F5
:102DC000484310BD0010024000127A00E04703089B
:102DD00000093D002DE9F84F05460078F74EC00781
:102DE0004FF0010425D070686704C0F3810001280A
:102DF00007D07068C0F3810002281BD17068C0033F
:102E000018D597FAA7F0B0FA80F040F020004009FA
:102E100001D0306800E0706A97FAA7F1B1FA81F149
:102E200001F01F0104FA01F1084264D0686800282B
:102E30007DD060E06868B0F5803F0BD010B1B0F590
:102E4000A02F17D0306820F480303060306820F434
:102E5000802002E0306840F480303060F06AA96879
:102E600020F00F000843F062686828B3FFF7CEFB3C
:102E700080460BE0306840F480203060EAE700BF15
:102E8000FFF7C4FBA0EB0800642871D897FAA7F0FD
:102E9000B0FA80F040F02000400901D0306800E036
:102EA000706A97FAA7F1B1FA81F101F01F0104FAF3
:102EB00001F10842E4D01EE0FFF7A8FB804605E0E0
:102EC000FFF7A4FBA0EB08006428DED897FAA7F070
:102ED000B0FA80F040F02000400901D0306800E0F6
:102EE000706A97FAA7F1B1FA81F101F01F0104FAB3
:102EF00001F10842E4D12878DFF8C48280074FF05E
:102F0000000A4FF0020732D570684FF0F80B10F04E
:102F10000C0F07D07068C0F38100022829D17068B7
:102F2000C00326D497FAA7F0B0FA80F000E08BE057
:102F300040F02000400901D0306800E0706A97FA44
:102F4000A7F1B1FA81F101F01F0104FA01F1084281
:102F500002D02869012877D130689BFAABF2696901
:102F6000B2FA82F220F0F8009140084330605AE053
:102F700064E1286988B394FAA4F0B0FA80F048F8C4
:102F80002040FFF743FB814606E000BFFFF73EFB12
:102F9000A0EB0900022898D897FAA7F0B0FA80F0C1
:102FA00040F02000400901D0306800E0706A97FAD4
:102FB000A7F1B1FA81F101F01F0104FA01F1084211
:102FC000E4D030689BFAABF220F0F8016869B2FAFD
:102FD00082F290400143316025E0FFE794FAA4F1CA
:102FE000B1FA81F148F821A0FFF710FB814605E016
:102FF000FFF70CFBA0EB09000228CCD897FAA7F04A
:10300000B0FA80F040F02000400901D0306800E0C4
:10301000706A97FAA7F1B1FA81F101F01F0104FA81
:1030200001F10842E4D1287800076CD5A869A8B35B
:1030300094FAA4F0B0FA80F008EB8000C0F8804465
:10304000FFF7E4FA814607E08AE100BFFFF7DEFA06
:10305000A0EB090002289ED897FAA7F0B0FA80F0FA
:1030600040F06000B4EB501F01D130680BE097FADC
:10307000A7F0B0FA80F040F06000B7EB501F01D12C
:10308000306A00E0706A97FAA7F1B1FA81F101F0B5
:103090001F0104FA01F21042D8D034E0FFE794FA9D
:1030A000A4F1B1FA81F108EB8101C1F880A4FFF726
:1030B000ADFA814606E000BFFFF7A8FAA0EB0900D1
:1030C00002289AD897FAA7F0B0FA80F040F0600092
:1030D000B4EB501F01D130680BE097FAA7F0B0FABB
:1030E00080F040F06000B7EB501F01D1306A00E083
:1030F000706A97FAA7F1B1FA81F101F01F0104FAA1
:1031000001F21042D8D12878400774D5F0694FF009
:103110000009C00009D4F06940F08050F061F06906
:103120004FF0010900F08050009026480168C90561
:1031300012D4016841F480710160FFF767FA834699
:1031400006E000BFFFF762FAA0EB0B00642875D819
:103150001C480068C005F5D5E86801280AD008B108
:10316000052811D0306A20F001003062306A20F06A
:10317000040002E0306A40F001003062E868E0B12B
:10318000FFF744FA83460DE0306A40F004003062F5
:10319000F0E700BFFFF73AFAA0EB0B0141F28830ED
:1031A00081424BD897FAA7F0B0FA80F040F0400087
:1031B000B4EB501F08D1306812E01DE0001002404F
:1031C000000042420070004097FAA7F0B0FA80F089
:1031D00040F04000B7EB501F01D1306A00E0706A48
:1031E00097FAA7F1B1FA81F101F01F0104FA01F297
:1031F0001042CFD02EE034E0FFF708FA834607E014
:10320000FFF704FAA0EB0B0141F28830814215D898
:1032100097FAA7F0B0FA80F040F04000B4EB501FEE
:1032200001D130680CE097FAA7F0B0FA80F040F0D6
:103230004000B7EB501F02D1306A01E083E0706AB2
:1032400097FAA7F1B1FA81F101F01F0104FA01F236
:103250001042D5D1B9F1000F03D0F06920F08050B1
:10326000F061E86980B37168C1F38101022977D008
:103270004FF080714F00022809D091FAA1F0B0FA06
:1032800080F048F820A0FFF7C1F905465EE08946C6
:1032900091FAA1F15046B1FA81F1C24648F82100F5
:1032A000FFF7B4F9804605E0FFF7B0F9A0EB08009E
:1032B000022848D897FAA7F0B0FA80F040F0200032
:1032C000400902D0306801E056E0706A97FAA7F131
:1032D000B1FA81F101F01F0104FA01F10842E3D1D2
:1032E000D5E908100843716821F47411084370602F
:1032F00099FAA9F0B0FA80F04AF82040FFF786F971
:10330000054604E0FFF782F9401B02281BD897FA14
:10331000A7F0B0FA80F040F02000400901D03068FA
:1033200000E0706A97FAA7F1B1FA81F101F01F018C
:1033300004FA01F10842E5D01EE000BFFFF766F98C
:10334000401B022802D90320BDE8F88F97FAA7F0A6
:10335000B0FA80F040F02000400902D0306801E06F
:103360000CE0706A97FAA7F1B1FA81F101F01F0140
:1033700004FA01F10842E1D10020E5E70120E3E78A
:103380004FF0E0210428086903D020F00400086110
:10339000704740F00400FAE7704710B5401EB0F1E6
:1033A000807F01D3012010BD4FF0E02460610F2128
:1033B000601700F035F90020A0610720206100208F
:1033C00010BD10B5FFF7E8FF10BD01688A69D24350
:1033D000920701D400228A6200688169C943C90743
:1033E00003D0816941F00101816170472DE9F0410D
:1033F0000446006890460E468069C043C0062ED43D
:103400000025202720688069C043800611D5701CE4
:10341000F8D02EB1FFF7FAF8A0EB0800B042F1D9CE
:1034200084F8417084F8425084F840500320BDE88D
:10343000F08121681020C8612068C7612046FFF72D
:10344000C4FF54F8440B4168064A1140416004200F
:1034500044F820096777A57725770120E7E7002062
:10346000E5E7000000E800FE70B50568049E6C68A2
:1034700005480440C1F3090040EA024018433043C4
:103480002043686070BD0000009800FC2DE9F04109
:103490001D4617460E460446DDF8188013E0681CEA
:1034A00011D02DB1FFF7B2F8A0EB0800A8420AD95D
:1034B000202084F84100002084F8420084F8400075
:1034C0000320BDE8F0812068806936EA000004D05E
:1034D0000020B842E3D00020F3E70120F9E770B5FF
:1034E00016460D4604461AE0324629462046FFF7A6
:1034F0007DFF08B1012070BD25B1FFF787F8801B63
:10350000A8420CD954F8440F40F0200044F80409B4
:10351000202060700020A0702070032070BD206803
:103520008069C0438006DFD4002070BD70B51646A8
:103530000D4604461CE0324629462046FFF756FF5A
:1035400008B1012070BD681C12D025B1FFF75EF8EC
:10355000801BA8420CD954F8440F40F0200044F8D6
:103560000409202060700020A0702070032070BD2E
:1035700020688069C0438007DDD4002070BD000052
:103580002DE9F041244886B0416941F48001416150
:10359000416901F480010591416941F48021416153
:1035A000416901F480210591416941F40031416193
:1035B0004069DFF8688000F400304FF4957405909E
:1035C000002221464046FFF71BF84FF400464FF01B
:1035D0009047002231463846FFF712F80125CDE921
:1035E000004500240294694640460394FEF744FFD8
:1035F0000096CDE90154694638460394FEF73CFF36
:103600001020CDE90004694640460294FEF734FFDD
:1036100006B0BDE8F0810000001002400004004840
:103620000907090E002806DA00F00F0000F1E0207B
:1036300080F8141D704700F1E02080F800147047F6
:103640007047704710B5FFF725F9BDE81040FFF748
:10365000B8BE30B59FB00320012100900491102125
:103660004FF4803000240591CDE901040225CDE915
:1036700007504FF4E01009906846FFF7ABFB00B12C
:10368000FEE70F20CDE919054FF48060CDE91B401E
:10369000022119A81D94FFF7A1FA00B1FEE720202E
:1036A0000A9011940AA8FFF78DF900B1FEE7FFF721
:1036B00059FB4FF47A71B0FBF1F0FFF76EFE042076
:1036C000FFF75EFE00221146501EFFF749F91FB0BA
:1036D00030BD000030B516494868164A10F00C039A
:1036E000154803D0042B01D0082B01D0026015E04F
:1036F0004B684C6803F470134FF0020514F4803FDC
:1037000005EB934307D0CC6A04F00F04641CB2FBB2
:10371000F4F25A43EAE7094A534303604968084A06
:10372000C1F30311515C0268CA40026030BD000061
:103730000010024000127A008000002000093D00C5
:10374000205103081448016841F4700101601348D6
:10375000016841F0010101604168114A1140416076
:103760000168104A11400160016821F48021016064
:10377000416821F4FE014160C16A21F00F01C1627C
:10378000016B094A11400163002181600249C003B5
:10379000803908607047000088ED00E000100240AA
:1037A0000CC07FF8FFFFF6FECCFC00FF02E008C86B
:1037B000121F08C1002AFAD170477047002001E0AB
:1037C00001C1121F002AFBD170470A681044921CE5
:1037D00000880A6040BA70470B681A18C01C12684B
:1037E000185C12BA22F0FF0210431B1D0B607047D9
:1037F000F0B5254C89B0606940F480206061606953
:10380000002500F48020214E03270090626905EB1B
:10381000450106EBC10043681A436261C268039226
:10382000826802920269CDE904274069069056F841
:10383000310002A9FEF720FE6D1CEDB2022DE5D38A
:10384000E06940F40010E061E069114900F4001003
:1038500000901048012201600F4941600021C0E939
:103860000212016141618161C1610162FEF700FFE5
:1038700000B1FEE700210748FEF7CEFE002800D089
:10388000FEE709B0F0BD0000001002400048030848
:1038900000540040C8000020FF5C700008B541EAF9
:1038A000400081B2642000900248FEF739FF0020FA
:1038B00008BD0000C8000020F0B51B4C89B060694D
:1038C00040F400306061606900F40030009060698D
:1038D00040F480206061606900F48020009060699D
:1038E00040F4002060616069002500F400200F4E64
:1038F00003270090626905EB850106EB81004368B0
:103900001A436261C2680392826802920069CDE93B
:10391000040756F8210002A9FEF7AEFD6D1CEDB2BA
:10392000032DE7D309B0F0BD001002403048030872
:1039300000EB800304480A4600EB830150F82300A3
:10394000098989B2FEF75CBE3048030800EB4003EA
:1039500004480A4600EB830150F82300098989B224
:10396000FEF74EBE6C4803082DE9F0430024114ECB
:10397000114D85B027464FF001084FF003097269D9
:1039800004EB440005EB80014B681A437261CDF8EB
:1039900004808968CDE90279009155F820006946D4
:1039A000FEF76AFD641CE4B2032CE8D305B0BDE861
:1039B000F0830000001002406C48030810B54FF47B
:1039C000806421460448FEF724FC2146BDE81040EF
:1039D000FF220248FEF716BC360500203601002003
:1039E00008B5002100918DF80100044802236A46C1
:1039F00090F9000080B2FFF751FF08BD04000020DD
:103A00002DE9F0411F4E204C40203070A08888B92D
:103A10002120FFF7E5FF0020FFF7E2FF7F20FFF7FF
:103A2000DFFF2220FFF7DCFF0020FFF7D9FF072090
:103A3000FFF7D6FF15494FF48062A1F58060FEF7CD
:103A4000F3FB00281BD01148A7881022C51929466E
:103A5000701CFEF7C5FB0B48294611303844102274
:103A6000FEF7BEFB94F90000112380B2054A002145
:103A7000FFF714FFA0881030C0F30900A080BDE854
:103A8000F081000025010020040000203605002000
:103A90002DE9F04190460C46054600F05DFA87B2EC
:103AA00000F02AFA86B2002D3ADB00F055FAA8425F
:103AB00036DD002C34DB00F01FFAA04230DD00F0D0
:103AC00015FA012804D0022808D0032810D10AE0F2
:103AD0002046381A2C46401E05B209E0781B401ECD
:103AE00005B2301B02E028462546301A401E04B2BB
:103AF0001A495FEA08024FF0010020D0012A11D0D4
:103B0000B8F1020F0CD1E21704EB5272D21005EBA0
:103B1000C2120A4404F00703117898404140117022
:103B2000BDE8F081E21704EB5272D21005EBC2122D
:103B30000A4404F00703117898400143EFE7E217C5
:103B400004EB5272D21005EBC212114404F00703C9
:103B50000A78984082430A70E2E7000036050020A8
:103B600070B50D460446FFF743FE314844700570BA
:103B7000AE20FFF735FFD520FFF732FF8020FFF79B
:103B80002FFFA820FFF72CFF3F20FFF729FFD320AE
:103B9000FFF726FF0020FFF723FF4020FFF720FF5D
:103BA0008D20FFF71DFF012C38D01420FFF718FFE0
:103BB0002020FFF715FF0020FFF712FFA120FFF7DD
:103BC0000FFFC820FFF70CFFDA20FFF709FF1220D4
:103BD000FFF706FF8120FFF703FF012C20D0CF2045
:103BE000FFF7FEFED920FFF7FBFEF120FFF7F8FEFE
:103BF000DB20FFF7F5FE4020FFF7F2FEA420FFF7E1
:103C0000EFFEA620FFF7ECFE2E20FFF7E9FEAF2027
:103C1000FFF7E6FEBDE87040FFF7D0BE1020C5E715
:103C20009F20FFF7DDFED920FFF7DAFE2220DDE737
:103C300004000020BFF34F8F05480168054A01F4D6
:103C4000E06111430160BFF34F8F00BFFDE700004B
:103C50000CED00E00400FA0530B5034600200246F2
:103C6000074C09E013F8015B521C85EA102534F873
:103C7000155085EA002080B28A42F3D330BD00009F
:103C8000204A03082DE9FF4F81468FB05D488846E2
:103C9000DDE91CB44169D9B1087A0027101A4A68D5
:103CA000C0B202EBC000096805910188039190F849
:103CB00002B0C178089190F905100E9190F90600B4
:103CC0000D90012C02D90D9804910790002085E0F9
:103CD000B0F9083099454ADAB0F90A30984546DA21
:103CE00004EB440309EB4301012940D408EBC40170
:103CF00001293CD4C07818B9B02A01D3521CD2B2E1
:103D0000414902EB8200002500EB010A01E0052D8C
:103D100002DA1AF8057000E000270026F8070CD038
:103D2000012C02D0129800900EE008EB060001B2C0
:103D300009EB050000B2129A23E012998B450DD0D1
:103D4000012C17D0CDF800B006FB048001B205FBB2
:103D50000490234600B21A4600F0B3F8761C76B2FF
:103D60007F08082EDADB6D1C6DB2062DCFDB13B099
:103D7000BDE8F08F08EB060001B209EB050000B2C8
:103D80005A4600F09CF8E9E7002522E0780707F1A1
:103D90000107FFB205D1059903980E5C401C80B263
:103DA0000390300611D5012C1DD007991298009070
:103DB000514401FB048001B204982346421902FBDE
:103DC000049000B21A4600F07CF87006060E6D1CD6
:103DD000EDB25D45DAD30AF10100C0B2089982461E
:103DE0008842D1D3C3E70D990E9A414401EB0A00F2
:103DF00001B209EB0200284400B2129A00F05FF809
:103E0000E3E7000068000020204C030808B50A44DE
:103E1000521E009313B2024600F001F808BD2DE9CE
:103E2000F05F0C4606461546191BA2EB060000D5AE
:103E30004942002800DA4042814207DD30462646EA
:103E40001D464FF001080446134601E04FF00008FC
:103E5000AE4205DD30462E46054620461C4603464A
:103E6000A81B0FFA80F9181B00D540420FFA80FBFF
:103E700009EBD97047109C4201DA012001E04FF0B4
:103E8000FF30824617E00A9AB8F1000F02D031469F
:103E9000204601E02146304600F011F8A7EB0B0068
:103EA00007B2002F05DA04EB0A0004B207EB0900A1
:103EB00007B2761C36B2AE42E5DDBDE8F09FFFF7F3
:103EC000E7BD2DE9F0411D46884604468718069E49
:103ED00007E033462A4641462046FFF797FF641C19
:103EE00024B2A742F5DCBDE8F0810000014840782B
:103EF00070470000680000200148B0F90A007047D0
:103F000068000020094A4FF6FF7390801081D1802D
:103F10005181002050709081D08101211170538215
:103F200013829170D07050617047000068000020CB
:103F3000014A9081D1817047680000200149488280
:103F4000088270476800002000B90120014908700C
:103F500070470000680000200148B0F90800704771
:103F6000680000202DE9FC5F444C4FF0000B224616
:103F700063699678B2F90850B2F81290B2F810A0BE
:103F8000B2F90E701178B2F90C20E3B30A286DD0A3
:103F90000D283ED093F808C060453AD393F80980C5
:103FA000804536D3A0EB0C04D3F804C0E4B20CEB8C
:103FB000C40494F802C094F80380BCF1000F1ED032
:103FC000B8F1000F1BD094F90580DFF8B0E066B1BE
:103FD000C444764611FB0C22AA4206DBA6F80CB0BC
:103FE0009A7A11FB0272AEF80E20CDE900910246DA
:103FF0005346BEF90E10BEF90C00FFF743FE1F48F2
:104000002179027800E007E0B0F90C3011FB0231B1
:1040100081810120BDE8FC9F184B0A281F78DB89AD
:1040200003EBC7031BB21DD00D28F2D046B101EB44
:10403000410602EB4602AA4202DBA4F80CB0E3817F
:10404000CDE9009102465346B4F90E10B4F90C00C4
:10405000FFF718FE2078A18900EB400001EB40003B
:10406000A081D6E7E381A4F80CB0D2E7A4F80CB0A5
:10407000987A11FB0070E081CBE700006800002017
:10408000FEF710FCD449D3480860FFF7E2FAFFF7C7
:1040900077FAFFF711FC01210020FFF749FC00F03F
:1040A00055FA00F0DFF9CD4C0025CD48A570E5614B
:1040B00004F11C012061FFF78FFB606104F11C011A
:1040C0002069FFF782FBA0612570657064269FED73
:1040D000C50AE66084ED010AFEF798FA112701256A
:1040E0004FF01008C4F8080000F03AFA00F02CFA7B
:1040F00020781228F8D2DFE800F009131D46638308
:104100008BB4FDBCFDE0E8FDFCFBFAF994ED010A7F
:10411000012000F0C3F9E660257002206070E3E73B
:10412000AE48E168083000F08DF90028DCD06078F6
:104130002070D9E7A0780830C1B2A1700020FFF745
:10414000F7FE5320FFF70EFF6920FFF70BFF7A20E1
:10415000FFF708FF6520FFF705FF2E20FFF702FF9E
:104160002E20FFF7FFFE2E20FFF7FCFE606920B136
:10417000B0F5C83F03D90420D2E00320D0E00520E9
:10418000CEE0E66024E14520FFF7ECFE7220FFF769
:10419000E9FE7220FFF7E6FE6F20FFF7E3FE7220D4
:1041A000FFF7E0FE2D20FFF7DDFE7A20FFF7DAFEB5
:1041B0006520FFF7D7FE7220FFF7D4FE6F20C0E026
:1041C0004520FFF7CFFE7220FFF7CCFE7220FFF7ED
:1041D000C9FE6F20FFF7C6FE7220FFF7C3FE2D2039
:1041E000FFF7C0FE7720FFF7BDFE7220FFF7BAFE93
:1041F0006F20FFF7B7FE6E20FFF7B4FE6720A0E048
:104200004F20FFF7AFFE4B20FFF7ACFE062087E004
:10421000A0780830C1B2A1700020FFF789FE4320CA
:10422000FFF7A0FE5220FFF79DFE4320FFF79AFE06
:104230002E20FFF797FE2E20FFF794FE2E20FFF78B
:1042400091FE2E20FFF78EFEE16920690844616926
:10425000FFF702FDA169884201D0082060E0072035
:104260005EE04F20FFF77EFE4B20FFF77BFE09202C
:1042700056E0A0780830C1B2A1700020FFF758FEC8
:104280004520FFF76FFE7220FFF76CFE6120FFF7FD
:1042900069FE7320FFF766FE6520FFF763FE2E20A0
:1042A000FFF760FE2E20FFF75DFE606900F052FA16
:1042B00008B10A2034E00B2032E04F20FFF752FE15
:1042C0004B20FFF74FFE0C202AE0A0780830C1B247
:1042D000A1700020FFF72CFE4320FFF743FE6F2064
:1042E000FFF740FE7020FFF73DFE04E052E04FE094
:1042F00033E02AE018E07920FFF734FE2E20FFF7A4
:1043000031FE2E20FFF72EFE2E20FFF72BFEE16957
:10431000206962690144002000F000FA10B10D200C
:1043200060702EE70E20FBE74520FFF71BFE722092
:10433000FFF718FE7220FFF715FE6F20FFF712FE41
:104340007220FFF70FFE67701BE74F20FFF70AFE92
:104350004B20FFF707FE0F20E2E7A0780830C1B23C
:10436000A1700020FFF7E4FD4420FFF7FBFD6F2064
:10437000FFF7F8FD6E20FFF7F5FD6520FFF7F2FD72
:104380002120FFF7EFFD84F801804FF4FA601EE072
:10439000FFF750FCA0780830C1B2A1700020FFF7F1
:1043A000C7FD4520FFF7DEFD5220FFF7DBFD522061
:1043B000FFF7D8FD4F20FFF7D5FD5220FFF7D2FDC4
:1043C0002120FFF7CFFD84F8018041F28830E060C2
:1043D000257089E60020030808ED00E08400002035
:1043E000009001080000000010B5FFF773F94FF0CE
:1043F000E02005494161054AF02182F8141D0021A1
:1044000081610721016110BD3F1901000FE000E04B
:1044100070B50D4604466321094800F013F8084AB8
:10442000121F10B11068401C106021681068411AFA
:10443000A94202D32060012070BD002070BD0000A1
:104440001000002070B50D460446FEF7DFF8216825
:10445000401AA84204D3FEF7D9F82060012070BDAD
:10446000002070BD10B5FEF7D1F80B4C4021E06084
:104470008020FFF747FD084805210C30FFF7E2FFD9
:104480000028F8D03C210220FFF76AFB00202070B2
:10449000FEF7BCF8A06010BD1400002031B5294D16
:1044A00004462DED020B2878A04205D1042269466E
:1044B000281DFDF7B9FEE8B30098686014B1012C1F
:1044C0003ED102E0FFF77AFA3AE0FFF777FA0120EF
:1044D000FFF73AFD0120FFF731FD00210846FFF705
:1044E00027FD4220FFF73EFD6F20FFF73BFD6F20C9
:1044F000FFF738FD7420FFF735FD6C20FFF732FD24
:104500006F20FFF72FFD6120FFF72CFD6420FFF7E0
:1045100029FD6520FFF726FD7220FFF723FD2020EF
:10452000FFF720FD5620FFF71DFD3020FFF71AFD95
:104530002E2000E004E0FFF715FD3120FFF712FD0B
:104540002C703EBD14000020FFF75ABA10B5FFF7DB
:104550000BFA00F005F8BDE81040FFF745BF00007A
:1045600070B51E4D002400BF15F834000B280ED284
:10457000DFE800F0060911141A1D22282B09060095
:10458000E0B2002101E0E0B20121FFF7DFF9641C95
:10459000032CE9D370BD00F08BF81BE000F09AF813
:1045A0000146E0B2FFF7D2F900F0A6F812E032219E
:1045B000204600F03BF80DE04FF4FA71204600F081
:1045C0000FF807E00A21C82002E004214FF47A70B6
:1045D00000F052F80146E0B2D7E7000044000020A6
:1045E00070B5114C05462079002804F1180004D05C
:1045F000FFF728FFB0B1002010E0FFF723FF88B1DC
:104600000948203000EBC5004168052902D9052181
:10461000416000E019B1491E416001202071FDF7A1
:10462000F5FFA061207970BD2400002070B5114C09
:104630000546E078002804F1140004D0FFF702FFDB
:10464000B0B1002010E0FFF7FDFE88B1094820302E
:1046500000EBC5004168142902D91421416000E033
:1046600019B1491E41600120E070FDF7CFFF606184
:10467000E07870BD2400002010B50C4C62793AB18E
:10468000014604F11C00FFF7DDFE60B1002006E0EA
:10469000414306481C30FFF7D5FE20B10120607170
:1046A000FDF7B4FFE061607910BD00002400002038
:1046B00010B505210648FFF7ABFE0549083928B1BA
:1046C000087808B1002000E001200870087810BDCB
:1046D0002C00002010B564210648FFF7B3FE054901
:1046E000103928B1887808B1002000E001208870D6
:1046F000887810BD3400002010B51E210648FFF751
:10470000A1FE05490C3928B1487808B1002000E025
:1047100001204870487810BD300000202DE9F0419C
:1047200015460E460746002409E03819315D00227F
:1047300000F1006000F02EF8002809D1641CAC42A2
:10474000F3D3BDE8F04101220021084600F022B871
:10475000BDE8F0817FB5002100F100650120CDE9C1
:104760000201C006CDE90010094E0C4656F824009F
:10477000A84209D2019003A96846FDF7E9FD002887
:1047800003D1641C322CF1DB002004B070BD0000AA
:104790009048030870B5114C002360B110F001057A
:1047A000257020F00100606015D0A06840EA01206B
:1047B000A06001206070207861781043084208D022
:1047C000D4E9011200252B460120FDF715FE034612
:1047D0006570184670BDA160EBE700005C0000202A
:1047E00002030405060708090A0B0C0D0E0F101032
:1047F0000102030405060708090A0B0C0D0E0F1031
:104800000004004800000400400000001200000006
:104810000100000004000000000400480000040043
:1048200080000000120000000100000004000000F1
:104830000004004800000400200000000100000007
:104840000000000000040048000004001000000008
:1048500000000000010000000008004800000800FF
:1048600000400000000000000100000000040048BB
:1048700000000200020000000004004800000800E0
:104880000800000000000048000008000080000050
:1048900000000008000800080010000800180008C8
:1048A0000020000800280008003000080038000838
:1048B00000400008004800080050000800580008A8
:1048C0000060000800680008007000080078000818
:1048D0000080000800880008009000080098000888
:1048E00000A0000800A8000800B0000800B80008F8
:1048F00000C0000800C8000800D0000800D8000868
:1049000000E0000800E8000800F0000800F80008D7
:104910000000010800080108001001080018010843
:1049200000200108002801080030010800380108B3
:104930000040010800480108005001080058010823
:104940000060010800680108007001080078010893
:104950000080010800880108009001080098010803
:1049600000A0010800A8010800B0010800B8010873
:1049700000C0010800C8010800D0010800D80108E3
:1049800000E0010800E8010800F0010800F8010853
:1049900000000208000802080010020800180208BF
:1049A000002002080028020800300208003802082F
:1049B000004002080048020800500208005802089F
:1049C000006002080068020800700208007802080F
:1049D000008002080088020800900208009802087F
:1049E00000A0020800A8020800B0020800B80208EF
:1049F00000C0020800C8020800D0020800D802085F
:104A000000E0020800E8020800F0020800F80208CE
:104A1000000003080008030800100308001803083A
:104A200000002110422063308440A550C660E7702A
:104A3000088129914AA16BB18CC1ADD1CEE1EFF1D2
:104A40003112100273325222B5529442F772D6627A
:104A5000399318837BB35AA3BDD39CC3FFF3DEE322
:104A60006224433420040114E664C774A4448554CA
:104A70006AA54BB528850995EEE5CFF5ACC58DD572
:104A80005336722611163006D776F6669556B4461A
:104A90005BB77AA719973887DFF7FEE79DD7BCC7C2
:104AA000C448E5588668A77840086118022823386A
:104AB000CCC9EDD98EE9AFF9488969990AA92BB912
:104AC000F55AD44AB77A966A711A500A333A122ABA
:104AD000FDDBDCCBBFFB9EEB799B588B3BBB1AAB62
:104AE000A66C877CE44CC55C222C033C600C411C0A
:104AF000AEED8FFDECCDCDDD2AAD0BBD688D499DB2
:104B0000977EB66ED55EF44E133E322E511E700E59
:104B10009FFFBEEFDDDFFCCF1BBF3AAF599F788F01
:104B20008891A981CAB1EBA10CD12DC14EF16FE1E1
:104B30008010A100C230E320045025404670676019
:104B4000B9839893FBA3DAB33DC31CD37FE35EF331
:104B5000B1029012F322D232354214527762567269
:104B6000EAB5CBA5A89589856EF54FE52CD50DC581
:104B7000E234C324A01481046674476424540544B9
:104B8000DBA7FAB79987B8975FE77EF71DC73CD7D1
:104B9000D326F2369106B016576676761546345609
:104BA0004CD96DC90EF92FE9C899E9898AB9ABA921
:104BB0004458654806782768C018E1088238A32859
:104BC0007DCB5CDB3FEB1EFBF98BD89BBBAB9ABB71
:104BD000754A545A376A167AF10AD01AB32A923AA9
:104BE0002EFD0FED6CDD4DCDAABD8BADE89DC98DC1
:104BF000267C076C645C454CA23C832CE01CC10CF9
:104C00001FEF3EFF5DCF7CDF9BAFBABFD98FF89F10
:104C1000176E367E554E745E932EB23ED10EF01E48
:104C200000000000003E5B4F5B3E3E6B4F6B3E1C46
:104C30003E7C3E1C183C7E3C181C577D571C1C5E5D
:104C40007F5E1C00183C1800FFE7C3E7FF00182434
:104C50001800FFE7DBE7FF30483A060E26297929DE
:104C600026407F050507407F05253F5A3CE73C5A13
:104C70007F3E1C1C08081C1C3E7F14227F22145FF0
:104C80005F005F5F06097F017F006689956A60604B
:104C900060606094A2FFA29408047E040810207E45
:104CA000201008082A1C08081C2A08081E101010CA
:104CB000100C1E0C1E0C30383E3830060E3E0E0610
:104CC000000000000000005F000000070007001463
:104CD0007F147F14242A7F2A122313086462364922
:104CE0005620500008070300001C2241000041220A
:104CF0001C002A1C7F1C2A08083E0808008070300F
:104D0000000808080808000060600020100804027D
:104D10003E5149453E00427F400072494949462183
:104D200041494D331814127F1027454545393C4AF7
:104D3000494931412111090736494949364649490E
:104D4000291E000014000000403400000008142256
:104D500041141414141400412214080201590906C4
:104D60003E415D594E7C1211127C7F494949363EC5
:104D7000414141227F4141413E7F494949417F09AB
:104D80000909013E414151737F0808087F00417FB6
:104D900041002040413F017F081422417F404040B4
:104DA000407F021C027F7F0408107F3E4141413E4C
:104DB0007F090909063E4151215E7F0919294626CE
:104DC0004949493203017F01033F4040403F1F20D2
:104DD00040201F3F4038403F6314081463030478A9
:104DE00004036159494D43007F41414102040810C9
:104DF00020004141417F0402010204404040404004
:104E0000000307080020545478407F284444383871
:104E100044444428384444287F38545454180008E3
:104E20007E090218A4A49C787F0804047800447DBD
:104E300040002040403D007F1028440000417F405A
:104E4000007C047804787C080404783844444438AE
:104E5000FC1824241818242418FC7C08040408488E
:104E60005454542404043F44243C4040207C1C20DF
:104E700040201C3C4030403C44281028444C90903A
:104E8000907C4464544C4400083641000000770094
:104E900000004136080002010204023C2623263CA1
:104EA0001EA1A161123A4040207A3854545559212C
:104EB0005555794122545478422155547840205414
:104EC0005579400C1E527212395555555939545462
:104ED000545939555454580000457C410002457DD1
:104EE000420001457C407D1211127DF0282528F0FA
:104EF0007C545545002054547C547C0A097F493227
:104F0000494949323A4444443A324A4848303A419D
:104F100041217A3A42402078009DA0A07D3D424246
:104F2000423D3D4040403D3C24FF2424487E4943CF
:104F3000662B2FFC2F2BFF0929F620C0887E090342
:104F400020545479410000447D413048484A323869
:104F50004040227A007A0A0A727D0D19317D262995
:104F6000292F28262929292630484D40203808088D
:104F7000080808080808382F10C8ACBA2F102834C1
:104F8000FA00007B000008142A142222142A1408B4
:104F90005500550055AA55AA55AAFF55FF55FF00C3
:104FA0000000FF00101010FF00141414FF00101078
:104FB000FF00FF1010F010F0141414FC001414F78C
:104FC00000FF0000FF00FF1414F404FC1414171079
:104FD0001F10101F101F1414141F00101010F000C9
:104FE0000000001F101010101F10101010F0100003
:104FF0000000FF101010101010101010FF10000013
:1050000000FF140000FF00FF00001F10170000FC4D
:1050100004F414141710171414F404F40000FF001F
:10502000F714141414141414F700F71414141714A8
:1050300010101F101F141414F4141010F010F000AE
:10504000001F101F0000001F14000000FC140000CF
:10505000F010F01010FF10FF141414FF14101010B3
:105060001F00000000F010FFFFFFFFFFF0F0F0F066
:10507000F0FFFFFF0000000000FFFF0F0F0F0F0FFA
:105080003844443844FC4A4A4A347E020206060246
:105090007E027E0263554941633844443C04407EAD
:1050A000201E2006027E020299A5E7A5991C2A4926
:1050B0002A1C4C7201724C304A4D4D3030487848B1
:1050C00030BC625A463D3E494949007E0101017E9D
:1050D0002A2A2A2A2A44445F444440514A444040F0
:1050E000444A51400000FF0103E080FF000008082F
:1050F0006B6B083612362436060F090F06000018AF
:10510000180000001010003040FF0101001F0101D5
:105110001E00191D1712003C3C3C3C000000000022
:105120000000000000000000010203040607080957
:105130005051030800000020A4000000AC37030811
:10514000F4510308A4000020940C0000BC370308AD
:10515000000000000000000000000000000000004F
:10516000000000000000000000000000000000003F
:10517000000000000000000000000000000000002F
:10518000000000000000000000000000000000001F
:105190000000000003000000000000000300000009
:1051A000000000000A0000000000000000000000F5
:1051B00000000000000000000000000000000000EF
:1051C00000000000000000000000000000000000DF
:1051D00000127A0000000000000000000000000043
:1051E00000000000000000000000000000000000BF
:0451F00000000000BB
:040000050803218942
:00000001FF
